{
  "_format": "hh-sol-artifact-1",
  "contractName": "Allodium",
  "sourceName": "contracts/AllodiumEtherV1.sol",
  "abi": [
    {
      "inputs": [
        {
          "internalType": "uint256",
          "name": "_initialSupply",
          "type": "uint256"
        }
      ],
      "stateMutability": "nonpayable",
      "type": "constructor"
    },
    {
      "anonymous": false,
      "inputs": [
        {
          "indexed": true,
          "internalType": "address",
          "name": "_owner",
          "type": "address"
        },
        {
          "indexed": true,
          "internalType": "address",
          "name": "_spender",
          "type": "address"
        },
        {
          "indexed": false,
          "internalType": "uint256",
          "name": "_value",
          "type": "uint256"
        }
      ],
      "name": "Approval",
      "type": "event"
    },
    {
      "anonymous": false,
      "inputs": [
        {
          "indexed": true,
          "internalType": "address",
          "name": "_from",
          "type": "address"
        },
        {
          "indexed": true,
          "internalType": "address",
          "name": "_to",
          "type": "address"
        },
        {
          "indexed": false,
          "internalType": "uint256",
          "name": "_value",
          "type": "uint256"
        }
      ],
      "name": "Transfer",
      "type": "event"
    },
    {
      "inputs": [
        {
          "internalType": "address",
          "name": "",
          "type": "address"
        },
        {
          "internalType": "address",
          "name": "",
          "type": "address"
        }
      ],
      "name": "allowance",
      "outputs": [
        {
          "internalType": "uint256",
          "name": "",
          "type": "uint256"
        }
      ],
      "stateMutability": "view",
      "type": "function"
    },
    {
      "inputs": [
        {
          "internalType": "address",
          "name": "",
          "type": "address"
        }
      ],
      "name": "balanceOf",
      "outputs": [
        {
          "internalType": "uint256",
          "name": "",
          "type": "uint256"
        }
      ],
      "stateMutability": "view",
      "type": "function"
    },
    {
      "inputs": [],
      "name": "getTokenHolder",
      "outputs": [
        {
          "internalType": "address[]",
          "name": "",
          "type": "address[]"
        }
      ],
      "stateMutability": "view",
      "type": "function"
    },
    {
      "inputs": [
        {
          "internalType": "address",
          "name": "_address",
          "type": "address"
        }
      ],
      "name": "getTokenHolderData",
      "outputs": [
        {
          "internalType": "uint256",
          "name": "",
          "type": "uint256"
        },
        {
          "internalType": "address",
          "name": "",
          "type": "address"
        },
        {
          "internalType": "address",
          "name": "",
          "type": "address"
        },
        {
          "internalType": "uint256",
          "name": "",
          "type": "uint256"
        },
        {
          "internalType": "bool",
          "name": "",
          "type": "bool"
        }
      ],
      "stateMutability": "view",
      "type": "function"
    },
    {
      "inputs": [
        {
          "internalType": "uint256",
          "name": "",
          "type": "uint256"
        }
      ],
      "name": "holderToken",
      "outputs": [
        {
          "internalType": "address",
          "name": "",
          "type": "address"
        }
      ],
      "stateMutability": "view",
      "type": "function"
    },
    {
      "inputs": [],
      "name": "name",
      "outputs": [
        {
          "internalType": "string",
          "name": "",
          "type": "string"
        }
      ],
      "stateMutability": "view",
      "type": "function"
    },
    {
      "inputs": [],
      "name": "ownerOfContract",
      "outputs": [
        {
          "internalType": "address",
          "name": "",
          "type": "address"
        }
      ],
      "stateMutability": "view",
      "type": "function"
    },
    {
      "inputs": [],
      "name": "standart",
      "outputs": [
        {
          "internalType": "string",
          "name": "",
          "type": "string"
        }
      ],
      "stateMutability": "view",
      "type": "function"
    },
    {
      "inputs": [],
      "name": "symbol",
      "outputs": [
        {
          "internalType": "string",
          "name": "",
          "type": "string"
        }
      ],
      "stateMutability": "view",
      "type": "function"
    },
    {
      "inputs": [
        {
          "internalType": "address",
          "name": "",
          "type": "address"
        }
      ],
      "name": "tokenHolderInfos",
      "outputs": [
        {
          "internalType": "uint256",
          "name": "_tokenId",
          "type": "uint256"
        },
        {
          "internalType": "address",
          "name": "_from",
          "type": "address"
        },
        {
          "internalType": "address",
          "name": "_to",
          "type": "address"
        },
        {
          "internalType": "uint256",
          "name": "_totalToken",
          "type": "uint256"
        },
        {
          "internalType": "bool",
          "name": "_tokenHolder",
          "type": "bool"
        }
      ],
      "stateMutability": "view",
      "type": "function"
    },
    {
      "inputs": [],
      "name": "totalSupply",
      "outputs": [
        {
          "internalType": "uint256",
          "name": "",
          "type": "uint256"
        }
      ],
      "stateMutability": "view",
      "type": "function"
    },
    {
      "inputs": [
        {
          "internalType": "address",
          "name": "_to",
          "type": "address"
        },
        {
          "internalType": "uint256",
          "name": "_value",
          "type": "uint256"
        }
      ],
      "name": "transfer",
      "outputs": [
        {
          "internalType": "bool",
          "name": "success",
          "type": "bool"
        }
      ],
      "stateMutability": "nonpayable",
      "type": "function"
    },
    {
      "inputs": [
        {
          "internalType": "address",
          "name": "_from",
          "type": "address"
        },
        {
          "internalType": "address",
          "name": "_to",
          "type": "address"
        },
        {
          "internalType": "uint256",
          "name": "_value",
          "type": "uint256"
        }
      ],
      "name": "transferFrom",
      "outputs": [
        {
          "internalType": "bool",
          "name": "success",
          "type": "bool"
        }
      ],
      "stateMutability": "nonpayable",
      "type": "function"
    }
  ],
  "bytecode": "0x60806040526040518060400160405280600881526020017f416c6c6f6469756d0000000000000000000000000000000000000000000000008152505f9081620000499190620003fe565b506040518060400160405280600481526020017f414c4f440000000000000000000000000000000000000000000000000000000081525060019081620000909190620003fe565b506040518060400160405280600f81526020017f40416c6c6f6469756d20762e302e31000000000000000000000000000000000081525060029081620000d79190620003fe565b50348015620000e4575f80fd5b506040516200194b3803806200194b83398181016040528101906200010a919062000515565b3360045f6101000a81548173ffffffffffffffffffffffffffffffffffffffff021916908373ffffffffffffffffffffffffffffffffffffffff1602179055508060085f3373ffffffffffffffffffffffffffffffffffffffff1673ffffffffffffffffffffffffffffffffffffffff1681526020019081526020015f2081905550806003819055505062000545565b5f81519050919050565b7f4e487b71000000000000000000000000000000000000000000000000000000005f52604160045260245ffd5b7f4e487b71000000000000000000000000000000000000000000000000000000005f52602260045260245ffd5b5f60028204905060018216806200021657607f821691505b6020821081036200022c576200022b620001d1565b5b50919050565b5f819050815f5260205f209050919050565b5f6020601f8301049050919050565b5f82821b905092915050565b5f60088302620002907fffffffffffffffffffffffffffffffffffffffffffffffffffffffffffffffff8262000253565b6200029c868362000253565b95508019841693508086168417925050509392505050565b5f819050919050565b5f819050919050565b5f620002e6620002e0620002da84620002b4565b620002bd565b620002b4565b9050919050565b5f819050919050565b6200030183620002c6565b620003196200031082620002ed565b8484546200025f565b825550505050565b5f90565b6200032f62000321565b6200033c818484620002f6565b505050565b5b818110156200036357620003575f8262000325565b60018101905062000342565b5050565b601f821115620003b2576200037c8162000232565b620003878462000244565b8101602085101562000397578190505b620003af620003a68562000244565b83018262000341565b50505b505050565b5f82821c905092915050565b5f620003d45f1984600802620003b7565b1980831691505092915050565b5f620003ee8383620003c3565b9150826002028217905092915050565b62000409826200019a565b67ffffffffffffffff811115620004255762000424620001a4565b5b620004318254620001fe565b6200043e82828562000367565b5f60209050601f83116001811462000474575f84156200045f578287015190505b6200046b8582620003e1565b865550620004da565b601f198416620004848662000232565b5f5b82811015620004ad5784890151825560018201915060208501945060208101905062000486565b86831015620004cd5784890151620004c9601f891682620003c3565b8355505b6001600288020188555050505b505050505050565b5f80fd5b620004f181620002b4565b8114620004fc575f80fd5b50565b5f815190506200050f81620004e6565b92915050565b5f602082840312156200052d576200052c620004e2565b5b5f6200053c84828501620004ff565b91505092915050565b6113f880620005535f395ff3fe608060405234801561000f575f80fd5b50600436106100cd575f3560e01c8063760b06c51161008a578063a9059cbb11610064578063a9059cbb14610241578063ba8e355714610271578063dd62ed3e1461028f578063f54095a7146102bf576100cd565b8063760b06c5146101bf57806382b68263146101ef57806395d89b4114610223576100cd565b806306fdde03146100d157806318160ddd146100ef57806323b872dd1461010d57806329cc66ed1461013d578063468229ae1461017157806370a082311461018f575b5f80fd5b6100d96102dd565b6040516100e69190610e3d565b60405180910390f35b6100f7610368565b6040516101049190610e75565b60405180910390f35b61012760048036038101906101229190610f16565b61036e565b6040516101349190610f80565b60405180910390f35b61015760048036038101906101529190610f99565b61064e565b604051610168959493929190610fd3565b60405180910390f35b6101796106ca565b6040516101869190611024565b60405180910390f35b6101a960048036038101906101a49190610f99565b6106ef565b6040516101b69190610e75565b60405180910390f35b6101d960048036038101906101d4919061103d565b610704565b6040516101e69190611024565b60405180910390f35b61020960048036038101906102049190610f99565b61073f565b60405161021a959493929190610fd3565b60405180910390f35b61022b6108e5565b6040516102389190610e3d565b60405180910390f35b61025b60048036038101906102569190611068565b610971565b6040516102689190610f80565b60405180910390f35b610279610c63565b604051610286919061115d565b60405180910390f35b6102a960048036038101906102a4919061117d565b610cee565b6040516102b69190610e75565b60405180910390f35b6102c7610d0e565b6040516102d49190610e3d565b60405180910390f35b5f80546102e9906111e8565b80601f0160208091040260200160405190810160405280929190818152602001828054610315906111e8565b80156103605780601f1061033757610100808354040283529160200191610360565b820191905f5260205f20905b81548152906001019060200180831161034357829003601f168201915b505050505081565b60035481565b5f60085f8573ffffffffffffffffffffffffffffffffffffffff1673ffffffffffffffffffffffffffffffffffffffff1681526020019081526020015f20548211156103ef576040517f08c379a00000000000000000000000000000000000000000000000000000000081526004016103e690611262565b60405180910390fd5b60095f8573ffffffffffffffffffffffffffffffffffffffff1673ffffffffffffffffffffffffffffffffffffffff1681526020019081526020015f205f3373ffffffffffffffffffffffffffffffffffffffff1673ffffffffffffffffffffffffffffffffffffffff1681526020019081526020015f20548211156104aa576040517f08c379a00000000000000000000000000000000000000000000000000000000081526004016104a1906112ca565b60405180910390fd5b8160085f8673ffffffffffffffffffffffffffffffffffffffff1673ffffffffffffffffffffffffffffffffffffffff1681526020019081526020015f205f8282546104f69190611315565b925050819055508160085f8573ffffffffffffffffffffffffffffffffffffffff1673ffffffffffffffffffffffffffffffffffffffff1681526020019081526020015f205f8282546105499190611348565b925050819055508160095f8673ffffffffffffffffffffffffffffffffffffffff1673ffffffffffffffffffffffffffffffffffffffff1681526020019081526020015f205f3373ffffffffffffffffffffffffffffffffffffffff1673ffffffffffffffffffffffffffffffffffffffff1681526020019081526020015f205f8282546105d79190611315565b925050819055508273ffffffffffffffffffffffffffffffffffffffff168473ffffffffffffffffffffffffffffffffffffffff167fddf252ad1be2c89b69c2b068fc378daa952ba7f163c4a11628f55a4df523b3ef8460405161063b9190610e75565b60405180910390a3600190509392505050565b6007602052805f5260405f205f91509050805f015490806001015f9054906101000a900473ffffffffffffffffffffffffffffffffffffffff1690806002015f9054906101000a900473ffffffffffffffffffffffffffffffffffffffff1690806003015490806004015f9054906101000a900460ff16905085565b60045f9054906101000a900473ffffffffffffffffffffffffffffffffffffffff1681565b6008602052805f5260405f205f915090505481565b60068181548110610713575f80fd5b905f5260205f20015f915054906101000a900473ffffffffffffffffffffffffffffffffffffffff1681565b5f805f805f60075f8773ffffffffffffffffffffffffffffffffffffffff1673ffffffffffffffffffffffffffffffffffffffff1681526020019081526020015f205f015460075f8873ffffffffffffffffffffffffffffffffffffffff1673ffffffffffffffffffffffffffffffffffffffff1681526020019081526020015f206002015f9054906101000a900473ffffffffffffffffffffffffffffffffffffffff1660075f8973ffffffffffffffffffffffffffffffffffffffff1673ffffffffffffffffffffffffffffffffffffffff1681526020019081526020015f206001015f9054906101000a900473ffffffffffffffffffffffffffffffffffffffff1660075f8a73ffffffffffffffffffffffffffffffffffffffff1673ffffffffffffffffffffffffffffffffffffffff1681526020019081526020015f206003015460075f8b73ffffffffffffffffffffffffffffffffffffffff1673ffffffffffffffffffffffffffffffffffffffff1681526020019081526020015f206004015f9054906101000a900460ff169450945094509450945091939590929450565b600180546108f2906111e8565b80601f016020809104026020016040519081016040528092919081815260200182805461091e906111e8565b80156109695780601f1061094057610100808354040283529160200191610969565b820191905f5260205f20905b81548152906001019060200180831161094c57829003601f168201915b505050505081565b5f8160085f3373ffffffffffffffffffffffffffffffffffffffff1673ffffffffffffffffffffffffffffffffffffffff1681526020019081526020015f205410156109f2576040517f08c379a00000000000000000000000000000000000000000000000000000000081526004016109e990611262565b60405180910390fd5b6109fa610d9a565b8160085f3373ffffffffffffffffffffffffffffffffffffffff1673ffffffffffffffffffffffffffffffffffffffff1681526020019081526020015f205f828254610a469190611315565b925050819055508160085f8573ffffffffffffffffffffffffffffffffffffffff1673ffffffffffffffffffffffffffffffffffffffff1681526020019081526020015f205f828254610a999190611348565b925050819055505f60075f8573ffffffffffffffffffffffffffffffffffffffff1673ffffffffffffffffffffffffffffffffffffffff1681526020019081526020015f20905083816002015f6101000a81548173ffffffffffffffffffffffffffffffffffffffff021916908373ffffffffffffffffffffffffffffffffffffffff16021790555033816001015f6101000a81548173ffffffffffffffffffffffffffffffffffffffff021916908373ffffffffffffffffffffffffffffffffffffffff1602179055506001816004015f6101000a81548160ff021916908315150217905550828160030181905550600554815f0181905550600684908060018154018082558091505060019003905f5260205f20015f9091909190916101000a81548173ffffffffffffffffffffffffffffffffffffffff021916908373ffffffffffffffffffffffffffffffffffffffff1602179055508373ffffffffffffffffffffffffffffffffffffffff163373ffffffffffffffffffffffffffffffffffffffff167fddf252ad1be2c89b69c2b068fc378daa952ba7f163c4a11628f55a4df523b3ef85604051610c509190610e75565b60405180910390a3600191505092915050565b60606006805480602002602001604051908101604052809291908181526020018280548015610ce457602002820191905f5260205f20905b815f9054906101000a900473ffffffffffffffffffffffffffffffffffffffff1673ffffffffffffffffffffffffffffffffffffffff1681526020019060010190808311610c9b575b5050505050905090565b6009602052815f5260405f20602052805f5260405f205f91509150505481565b60028054610d1b906111e8565b80601f0160208091040260200160405190810160405280929190818152602001828054610d47906111e8565b8015610d925780601f10610d6957610100808354040283529160200191610d92565b820191905f5260205f20905b815481529060010190602001808311610d7557829003601f168201915b505050505081565b60055f815480929190610dac9061137b565b9190505550565b5f81519050919050565b5f82825260208201905092915050565b5f5b83811015610dea578082015181840152602081019050610dcf565b5f8484015250505050565b5f601f19601f8301169050919050565b5f610e0f82610db3565b610e198185610dbd565b9350610e29818560208601610dcd565b610e3281610df5565b840191505092915050565b5f6020820190508181035f830152610e558184610e05565b905092915050565b5f819050919050565b610e6f81610e5d565b82525050565b5f602082019050610e885f830184610e66565b92915050565b5f80fd5b5f73ffffffffffffffffffffffffffffffffffffffff82169050919050565b5f610ebb82610e92565b9050919050565b610ecb81610eb1565b8114610ed5575f80fd5b50565b5f81359050610ee681610ec2565b92915050565b610ef581610e5d565b8114610eff575f80fd5b50565b5f81359050610f1081610eec565b92915050565b5f805f60608486031215610f2d57610f2c610e8e565b5b5f610f3a86828701610ed8565b9350506020610f4b86828701610ed8565b9250506040610f5c86828701610f02565b9150509250925092565b5f8115159050919050565b610f7a81610f66565b82525050565b5f602082019050610f935f830184610f71565b92915050565b5f60208284031215610fae57610fad610e8e565b5b5f610fbb84828501610ed8565b91505092915050565b610fcd81610eb1565b82525050565b5f60a082019050610fe65f830188610e66565b610ff36020830187610fc4565b6110006040830186610fc4565b61100d6060830185610e66565b61101a6080830184610f71565b9695505050505050565b5f6020820190506110375f830184610fc4565b92915050565b5f6020828403121561105257611051610e8e565b5b5f61105f84828501610f02565b91505092915050565b5f806040838503121561107e5761107d610e8e565b5b5f61108b85828601610ed8565b925050602061109c85828601610f02565b9150509250929050565b5f81519050919050565b5f82825260208201905092915050565b5f819050602082019050919050565b6110d881610eb1565b82525050565b5f6110e983836110cf565b60208301905092915050565b5f602082019050919050565b5f61110b826110a6565b61111581856110b0565b9350611120836110c0565b805f5b8381101561115057815161113788826110de565b9750611142836110f5565b925050600181019050611123565b5085935050505092915050565b5f6020820190508181035f8301526111758184611101565b905092915050565b5f806040838503121561119357611192610e8e565b5b5f6111a085828601610ed8565b92505060206111b185828601610ed8565b9150509250929050565b7f4e487b71000000000000000000000000000000000000000000000000000000005f52602260045260245ffd5b5f60028204905060018216806111ff57607f821691505b602082108103611212576112116111bb565b5b50919050565b7f496e73756666696369656e742062616c616e63650000000000000000000000005f82015250565b5f61124c601483610dbd565b915061125782611218565b602082019050919050565b5f6020820190508181035f83015261127981611240565b9050919050565b7f416c6c6f77616e636520657863656564656400000000000000000000000000005f82015250565b5f6112b4601283610dbd565b91506112bf82611280565b602082019050919050565b5f6020820190508181035f8301526112e1816112a8565b9050919050565b7f4e487b71000000000000000000000000000000000000000000000000000000005f52601160045260245ffd5b5f61131f82610e5d565b915061132a83610e5d565b9250828203905081811115611342576113416112e8565b5b92915050565b5f61135282610e5d565b915061135d83610e5d565b9250828201905080821115611375576113746112e8565b5b92915050565b5f61138582610e5d565b91507fffffffffffffffffffffffffffffffffffffffffffffffffffffffffffffffff82036113b7576113b66112e8565b5b60018201905091905056fea26469706673582212205fd5efa0aead475212b2afd0fe68269230afa8ebef3915dda1eaf1856be2028364736f6c63430008140033",
  "linkReferences": {},
  "deployedLinkReferences": {}
}